:020000040800F2
:10000000E04900209902000853110008A3100008DD
:1000100051110008C903000819150008000000006C
:10002000000000000000000000000000D9010008EE
:100030007D0400080000000035020008E9110008F6
:10004000B3020008B3020008B3020008B3020008BC
:10005000B3020008B3020008B3020008B3020008AC
:10006000B3020008B3020008B3020008B30200089C
:10007000B3020008B3020008B3020008B30200088C
:10008000B3020008B3020008B3020008B30200087C
:10009000B3020008B3020008B3020008B30200086C
:1000A000B3020008B3020008B3020008B30200085C
:1000B000B3020008B9120008B3020008B302000836
:1000C000B3020008B3020008B3020008B30200083C
:1000D000B3020008B3020008B3020008B30200082C
:1000E000B3020008B3020008B3020008B30200081C
:1000F000B3020008B3020008B3020008B30200080C
:10010000B3020008B3020008B3020008B3020008FB
:10011000B3020008B3020008B3020008B3020008EB
:10012000B3020008B3020008B3020008B3020008DB
:10013000B30200080000000000000000B302000845
:10014000B3020008B3020008B3020008B3020008BB
:10015000B3020008B3020008B3020008B3020008AB
:10016000B3020008B3020008B3020008B30200089B
:10017000B3020008B3020008B30200080000000048
:1001800000000000B30200080000000000000000B2
:10019000B30200080000000000000000B3020008E5
:1001A000000000000000000000000000B302000892
:1001B000B3020008B3020008B3020008B30200084B
:1001C000B3020008DFF80CD000F0ECF8004800475C
:1001D0006D150008E04900202C4B19680868B0E84C
:1001E000F04F80F30988BFF36F8F4FF0000080F36A
:1001F000118870470000000008480068006880F31C
:1002000008884FF0000080F3148862B661B6BFF32F
:100210004F8FBFF36F8F00DF00BF00BF08ED00E01E
:10022000DFF80C00016841F470010160704700BF05
:1002300088ED00E0EFF30980BFF36F8F134B1A686E
:100240001EF0100F08BF20ED108A20E9F04F10605B
:1002500009B44FF0500080F31188BFF34F8FBFF304
:100260006F8F02F089F84FF0000080F3118809BC0D
:1002700019680868B0E8F04F1EF0100F08BFB0EC26
:10028000108A80F30988BFF36F8F70472800002021
:10029000EFF3058070470000064880470648004796
:1002A000FEE7FEE7FEE7FEE7FEE7FEE7FEE7FEE726
:1002B000FEE7FEE79D120008C50100082DE9F05F8A
:1002C0000546002092469B468846064681464024C5
:1002D0001BE0284641464746224600F053F8534665
:1002E0005A46C01A914110D311461846224600F0D2
:1002F0003AF82D1A67EB01084F46224601200021EB
:1003000000F031F817EB00094E41201EA4F1010462
:10031000DFDC484631462A464346BDE8F09F40EAC6
:1003200001039B0703D009E008C9121F08C0042A73
:10033000FAD203E011F8013B00F8013B521EF9D25A
:100340007047D2B201E000F8012B491EFBD2704782
:100350000022F6E710B513460A4604461946FFF791
:10036000F0FF204610BD202A04DB203A00FA02F1FB
:10037000002070479140C2F1200320FA03F3194393
:1003800090407047202A04DB203A21FA02F0002135
:10039000704721FA02F3D040C2F120029140084395
:1003A00019467047064C074D06E0E06840F001032F
:1003B00094E8070098471034AC42F6D3FFF706FFE5
:1003C000842F0008A42F0008FEE700000149401C0C
:1003D00008807047140000200348002301221146C2
:1003E000406802F003BB0000000000200348002327
:1003F00001221146806802F0F9BA000000000020D6
:1004000001480088FFF7E2BF1400002030B589B032
:100410001C2211A16846FFF782FF16A00068079012
:1004200001F09AF803231922694600F0DDFD124D10
:100430000A202C88B4FBF0F100FB114030308DF81D
:100440001C0001F089F80223042207A900F0CCFD6A
:100450002C8009B030BD0000636E745F31362068B7
:100460006173207468652076616C75653A200D0AA9
:1004700000000000200D0A001400002070477047A3
:100480002DE9F84F00224FF0010803254FF00F0E21
:100490000B6808FA02F42340A3426ED14E68012E85
:1004A00005D0022E03D0112E01D0122E12D1866853
:1004B0004FEA420C05FA0CF7BE43CF6807FA0CF777
:1004C000374387604668A6430C79C4F30014944010
:1004D00034434460C668570005FA07FC8C6826EA76
:1004E0000C06BC403443C4604C68022C01D0122C72
:1004F00013D1D40800EB8404A346D4F82090540709
:100500004FEAD46A0EFA0AF629EA06090E6906FAD3
:100510000AF646EA0906CBF8206006680C7926EA56
:100520000C0604F00304BC40344304604C68E4004F
:1005300060D5334C266846F480462660246822F055
:10054000030604F4804400942E4C3444A446D4F8AA
:1005500008489607370F0EFA07F6B4432A4EB04202
:1005600001D100261FE0294EB04201D101261AE038
:10057000274EB04202D1022615E03BE0254EB042A4
:1005800001D103260FE0244EB04201D104260AE037
:10059000224EB04201D1052605E0214EB04201D1E4
:1005A000062600E00726BE402643CCF808681D4E0C
:1005B00034684F689C43FF0300D51C433460194ED8
:1005C000361D34684F689C43BF0300D51C4334601C
:1005D000144E083634684F689C43FF0200D51C4314
:1005E0003460104E0C3634684F689C43BF0200D50F
:1005F0001C433460521C102AFFF44AAFBDE8F88F48
:100600004438024000300140000002400004024033
:1006100000080240000C024000100240001402409A
:1006200000180240003C01400AB181617047090492
:10063000FBE70000014880687047000018000020B8
:1006400002488168027811448160704718000020D8
:100650000B4810B5016841F400710160016841F474
:1006600080610160016841F480710160032000F045
:100670008DF8002000F006F800F03EF8002010BDD4
:10068000003C024010B5014688B000221D2000F059
:100690005DF81D2000F04CF813480024016841F07B
:1006A00002010160006805A900F00200069068469A
:1006B00000F018F900F036F90C494000B0FBF1F1F8
:1006C0000C480B4A491E026040F2E732C0E903249D
:1006D000C0E9011400F034FB10B1012008B010BDD6
:1006E000044800F049FBF9E74038024040420F005F
:1006F00000040040440700200C4882B0016841F427
:1007000080410160006800F4804000900748001FAD
:10071000016841F0805101600068002200F08050C3
:1007200000900F21901E02B000F010B84438024033
:10073000002809DB00F01F020121914040098000E0
:1007400000F1E020C0F8001170470000F0B40E4B3B
:100750001B680C46C3F30223C3F10705042D00D91F
:100760000425191D072901D2002300E0DB1E012604
:1007700006FA05F1491E214099409E40761E16401A
:100780003143F0BC00F0C9BE0CED00E0064900F0BA
:10079000070208684FF6FF03184040EA0220034AA8
:1007A00010430860704700000CED00E00000FA05FF
:1007B0002DE9F0470E46050065D0DFF81481D8F822
:1007C0000000F7B200F00F00B04207D288F80070C6
:1007D000D8F8000000F00F00B04254D128683D4C1A
:1007E000810712D5400703D5206840F4E05020600F
:1007F0002878000703D5206840F460402060206816
:10080000A96820F0F000084320602878C0072DD0A8
:10081000304968680839012812D0022813D003280B
:1008200011D00968890700292DDA216821F0030118
:1008300001432160FFF7FEFE814641F2883A0EE057
:1008400009688903EFE709688901ECE7FFF7F2FE21
:10085000A0EB0901514502D90320BDE8F0872068CB
:10086000696800F00C00B0EB810FEFD1D8F80010F0
:10087000404601F00F01B14207D90770006800F04F
:100880000F00B04201D00120E7E72878400705D5E6
:100890002068E96820F4E0500843206028780007C9
:1008A00006D52068296920F4604040EAC100206034
:1008B00000F058F82168084AC1F30311515CC840A0
:1008C0000649086006480068FFF7DCFE0020C4E720
:1008D000003C024008380240482F00082400002055
:1008E0001C0000200F2202600C4A136803F003036F
:1008F0004360136803F0F0038360136803F4E0536C
:10090000C36012684FF4E05303EAD2020261044864
:10091000006800F00F0008607047000008380240CF
:10092000003C02400448054900680968044AC1F3D4
:100930008221515CC84070472400002008380240E2
:10094000582F00080448054900680968044AC1F3A3
:100950004231515CC84070472400002008380240F2
:10096000582F0008224810B5006810F00C022148EA
:1009700015D04110042A11D01D4C241F082A0FD075
:100980000C2A0CD12268236802F03F025B0221D5B9
:100990002068C0F38810A0FB010120E0084610BDCC
:1009A0002268236802F03F025B0205D52068C0F38D
:1009B0008810A0FB010104E02168C1F38811A1FBAC
:1009C00000010023FFF77AFC2168C1F30141491CB3
:1009D00049000AE02168C1F38811A1FB000100234E
:1009E000FFF76CFC2168C1F30271B0FBF1F010BDA0
:1009F000083802400024F4002DE9F84F0546DFF8DE
:100A000028B30078ABF10407C007A7F1040451D064
:100A1000DBF800105846C1F3810101290FD00168AD
:100A2000C1F38101022902D13968490207D4006863
:100A3000C0F38100032809D13868400206D5206838
:100A4000800337D56868002872D033E06868B0F555
:100A5000803F10D0B0F5A02F206810D020F4803057
:100A60002060206820F4802020606868A8B1FFF72B
:100A7000E1FD06460DE0206840F48030F4E740F4E4
:100A800080202060F7E700BFFFF7D4FD801B6428BB
:100A900078D820688003F7D50CE0FFF7CBFD064639
:100AA00005E000BFFFF7C6FD801B6428F0D8206872
:100AB0008003F7D42878DFF8749280074FF0000A9B
:100AC00046D5DBF80010584611F00C0F0FD0016826
:100AD000C1F38101022902D13968490207D50068B2
:100AE000C0F38100032809D13868400206D4206889
:100AF000800715D5E86801281AD111E0E868C0B16F
:100B00000120C9F80000FFF795FD064605E000BF8B
:100B1000FFF790FD801B0228BAD820688007F7D520
:100B20002068296920F0F80040EAC10020600FE049
:100B3000F7E0C9F800A0FFF77DFD064605E000BF1D
:100B4000FFF778FD801B02281CD820688007F7D4A7
:100B50002878000727D5DFF8D0817548696908F142
:100B60006C0881B101210160FFF764FD064604E0D5
:100B7000FFF760FD801B022804D8D8F8000080072A
:100B8000F6D510E089E0C0F800A0FFF753FD064657
:100B900005E000BFFFF74EFD801B02287DD8D8F886
:100BA00000008007F6D42878400769D55E484FF0EA
:100BB000000838300068C0000BD45B48383001684A
:100BC00041F08051016000684FF0010800F0805052
:100BD0000090584E3068C00511D4306840F48070E1
:100BE0003060FFF727FD009006E000BFFFF722FD11
:100BF0000099401A022850D83068C005F6D54A4EF0
:100C0000A868683601280FD00528306810D020F079
:100C100001003060306820F004003060A868B8B18E
:100C2000FFF708FD00900FE0306840F00100F4E7A6
:100C300040F004003060F7E7FFF7FCFC0099411A30
:100C400041F28830814264D830688007F4D50EE0E4
:100C5000FFF7F0FC009007E0FFF7ECFC0099411A69
:100C600041F28830814254D830688007F4D4B8F11A
:100C7000000F05D02C483830016821F08051016008
:100C8000A869A8B3DBF80010C1F38101022948D09C
:100C90000228C9F860A005D000E03AE0FFF7CAFCDE
:100CA000054639E0FFF7C6FC064604E0FFF7C2FC44
:100CB000801B02282DD820688001F7D4F5E90701B0
:100CC0000843E9681C4A490802EB0141AA6841EA65
:100CD00082110843297C40EA0160297D40EA0170C5
:100CE00038600120C9F86000FFF7A4FC054606E063
:100CF00015E000BFFFF79EFC401B022809D82068C2
:100D00008001F7D50BE000BFFFF794FC401B0228E1
:100D100002D90320BDE8F88F20688001F4D40020B8
:100D2000F8E70120F6E700000838024000004742DB
:100D3000800E4742007000400000FFFF7047704780
:100D400010B5040003D094F83D0010B107E0012075
:100D500010BD002084F83C00204600F00CF8022072
:100D600084F83D00211D206800F0ACFA012084F8D1
:100D70003D00002010BD70470168CA6842F00102C2
:100D8000CA600068816801F00701062903D0016884
:100D900041F00101016000207047704770B50446C2
:100DA000006801694FF00005C943890715D4C1687F
:100DB000C943890711D4E91E016101202077206809
:100DC00080698007204602D0FFF7E7FF04E000F0CB
:100DD00098F8204600F096F8257720680169C94305
:100DE000490717D4C168C943490713D46FF00401F8
:100DF0000161022020772068806910F4407F20463E
:100E000002D0FFF7CAFF04E000F07BF8204600F0B4
:100E100079F8257720680169C943090716D4C168A4
:100E2000C943090712D46FF008010161042020773B
:100E30002068C0698007204602D0FFF7AEFF04E0BB
:100E400000F05FF8204600F05DF825772068016922
:100E5000C943C90617D4C168C943C90613D46FF082
:100E600010010161082020772068C06910F4407FDC
:100E7000204602D0FFF791FF04E000F042F8204640
:100E800000F040F8257720680169C943C90708D1F7
:100E9000C168C943C90704D1891E0161204600F019
:100EA00033F820680169C943090609D4C168C943F8
:100EB000090605D46FF0800101612046FFF73EFF6F
:100EC00020680169C943490609D4C168C943490674
:100ED00005D46FF040010161204600F01FF8206842
:100EE0000169C94389060BD4C168C943890607D47F
:100EF0006FF0200101612046BDE87040FFF71FBF81
:100F000070BD70477047000000680349884201D1F6
:100F1000FFF796BB7047000000040040704770B5B3
:100F2000040004D094F83900002510B106E0012037
:100F300070BD84F83850204600F022F8242084F850
:100F400039002068C16821F40051C160204600F0DA
:100F50001DFA2068016921F490410161206841690E
:100F600021F02A0141612068C16841F40051C1604B
:100F7000E563202084F8390084F83A00002070BD31
:100F800010B586B0044614216846FFF7E1F913490D
:100F90002068884220D112480021026842F40032C1
:100FA0000260006800F4003005900D4810380268B7
:100FB00042F001020260006800F0010005900C2080
:100FC00000900220CDE90101032003900720049046
:100FD00069460448FFF754FA06B010BD00440040CB
:100FE00040380240000002402DE9F843044690F8E2
:100FF00039001F4616460D46202850D1B5B1AEB176
:1010000094F8380001284AD0012084F838004FF0C5
:101010000008C4F83C80212084F83900FFF70AFB5F
:10102000A6848146E68484F8388026E00120BDE865
:10103000F883E08C401EE084A0684B46B0F5805FEA
:101040004FF000024FF080012046009703D000F0DF
:1010500031FAE8B90DE000F02DFAC8B92888216806
:10106000C0F308004860206908B16D1C05E0AD1CA4
:1010700003E0216815F8010B4860E08C0028D8D106
:101080004B46002240212046009700F013FA08B199
:101090000320CCE7202084F839000020C7E7022095
:1010A000C5E7FEE730B587B014216846FFF750F971
:1010B00016480024016841F004010160016801F054
:1010C00004010591016841F0010101600068104DC3
:1010D00000F001000590224620212846FFF7A4FADF
:1010E0004FF40050CDE9000469460A480294FFF726
:1010F000C7F9202000900120CDE901046946284667
:101100000394FFF7BDF907B030BD0000303802404E
:1011100000000240000802400C4810B50A49016076
:101120004FF4E1314160002181600C22C160C0E9CF
:1011300004128161C161FFF7F2FE002803D0BDE80F
:101140001040FFF79CB910BD004400408407002008
:10115000FEE7704708B50020441E009023466A460B
:10116000FF21002001F00CFD0098C007F6D0FFF72A
:1011700047F9F3E708B50020441E009023466A466D
:10118000FF21002001F0FCFC0098C007F6D0FFF71B
:101190003DF9F3E78AB0242209A16846FFF7BFF8BA
:1011A000104C4FF47A752946E06800F083FA690024
:1011B000206900F07FFA284600F026FAFBE70000DD
:1011C00072756E6E696E672064656661756C7420F9
:1011D000746872656164206D6573736167650D0A7B
:1011E000000000000000002010B5502080F311889E
:1011F000BFF34F8FBFF36F8F01F06EFC18B104493E
:101200004FF080500860002080F3118810BD00006E
:1012100004ED00E030B593B034216846FFF798F84C
:1012200014210DA8FFF794F81A480025016841F031
:1012300080510160006800F08050129016480168EB
:1012400021F4404141F4804101600068022400F42F
:1012500040401290012003901020009406940490C6
:10126000CDE907504FF4A87009900420CDE90A0495
:1012700068460C94FFF7C0FB0DA90F2081E83100F0
:10128000E002CDE9100502210DA8FFF791FA13B095
:1012900030BD000040380240007000400548016841
:1012A00041F47001016003494FF00060803908602B
:1012B0007047000088ED00E00148FFF76FBD0000B7
:1012C00044070020F0B50268254C264D264E274FD6
:1012D000274B4FF0804CA04209D0604507D0A84270
:1012E00005D0B04203D0B84201D0984204D122F0D8
:1012F000700E4A6842EA0E02A0421BD0604519D027
:10130000A84217D0B04215D0B84213D0984211D09D
:10131000184DA8420ED0184DA8420BD0174DA84228
:1013200008D0174DA84205D0164DA84202D0164D40
:10133000A84203D122F44075CA682A434D6922F0BD
:1013400080022A4302608A68C2620A688262A042FE
:1013500001D0984201D10969016301214161F0BDC9
:10136000000001400004004000080040000C004064
:101370000004014000400140004401400048014099
:1013800000180040001C0040002000402DE9F04102
:10139000044600680169E26821F44051114301618B
:1013A0002169A068E2690843616911430843216823
:1013B000CA6849F20C639A430243CA6020684169D3
:1013C000A26921F4407111434161E0691927642544
:1013D0003226B0F5004F354A354920684FF00008F5
:1013E00006D0884201D0904236D1FFF7ABFA35E003
:1013F000884201D0904202D1FFF7A4FA01E0FFF742
:1014000091FA61684A18A0FB070148EB0803FEF750
:1014100055FF0146B0FBF5F00201B1FBF5F06FF0AE
:101420001803584301EB800006EBC000B0FBF5F059
:1014300000F0F80002EB4002B1FBF5F0584301EB7D
:10144000800006EBC000B0FBF5F000F0070021685B
:1014500010448860BDE8F081FFF764FA61688B0F83
:101460008A00A0FB0701FEF729FF0146B0FBF5F05B
:101470006FF01802504301EB800006EB0010B0FB48
:10148000F5F000F0F002B1FBF5F002EB0012B1FB59
:10149000F5F06FF01803584301EB800006EB0010E5
:1014A000B0FBF5F000F00F00D1E7000000140140A0
:1014B000001001402DE9F041984617460E460446BB
:1014C000069D1DE0681C1BD02DB1FFF7B3F8A0EB03
:1014D0000800A84214D92068C16821F4D071C16005
:1014E0002068416921F001014161202084F8390020
:1014F00084F83A00002084F838000320BDE8F08129
:101500002068006836EA000004D00020B842D9D034
:101510000020F3E70120F9E7FEE70907090E00289C
:1015200004DB00F1E02080F80014704700F00F00A9
:1015300000F1E02080F8141D704702E008C8121F77
:1015400008C1002AFAD170477047002001E001C1AC
:10155000121F002AFBD17047004870478407002003
:10156000EFF30580002800D0012070479AB0FFF704
:101570006FF8FFF74FFEFFF795FDFFF7CDFD1D4D0F
:101580000022D5E90001CDE91501012115A800F0DF
:1015900071F8194C0022E060D5E90201CDE917018C
:1015A000012117A800F066F820611C2205F1100146
:1015B0006846FEF7B4FE0021684600F031F820606E
:1015C0001C2205F12C0107A8FEF7A9FE002107A89F
:1015D00000F026F860601C2205F148010EA8FEF715
:1015E0009EFE00210EA800F01BF8A06000F013F88A
:1015F000FEE70000E42E0008000000200146002065
:10160000842900D0C81C704710B500B9012000F033
:10161000FFFD002010BD10B500F062FE002010BDDF
:101620007FB50D4604464169B0F9080081B1A16952
:1016300071B1FFF7E3FFD4E905128DE80700D4E9A3
:1016400000102B46226901F0A6F9039004B070BD8A
:10165000FFF7D4FF03A9CDE90001208A2B4682B20F
:10166000D4E9001001F06AF9012801D00020EDE76B
:101670000398EBE71CB511C86CB1CDE90004012952
:1016800007D0002013460246012109A001F0B2FB59
:101690001CBD0120F6E70090012907D00020134669
:1016A0000246012102A001F08BFB1CBD0120F6E7E0
:1016B000000000002DE9FC41002507462E4601955B
:1016C0000C0000D10124FFF74BFF009690B101AB55
:1016D00022460921384601F0D5FB012812D1019894
:1016E00088B10A494FF080500860BFF34F8FBFF3B5
:1016F0006F8F08E0002322460421384601F0C2FB28
:10170000012800D0FF252846BDE8FC8104ED00E05B
:101710002DE9F041184C0F46054666692068001D0A
:1017200000F046FC38B9206890F82C100120884061
:10173000A1698143A161681C07D137B12168BDE867
:10174000F0410E48091D00F083BC20683544B542C5
:101750004560216805D2A068BDE8F041091D00F090
:101760005FBC6068091D00F05BFC206B854200D205
:101770002563BDE8F081000028000020E00800207B
:101780002DE9F041054600F06FFC284C2069401C13
:1017900020612068264F10B1E06940B32DE025603C
:1017A0002069012829D1002606EB860007EB80007E
:1017B00000F028FC761C072EF6D31D488C3000F074
:1017C00021FC1B48A03000F01DFC1948B43000F08B
:1017D00019FC1748C83000F015FC1548DC3000F043
:1017E00011FC13488C3060601430A06005E0206864
:1017F000E96AC06A884200D82560E06A401CE0625D
:10180000E96A0120A26988401043A06101EB8100D0
:1018100007EB8000291D00F01BFC00F045FCE0698F
:10182000002800D02068BDE8F081000028000020DA
:101830000408002038B500F017FC104CA068C8B9A7
:101840000F4800F0DFFB0E48143000F0DBFB0C48C3
:101850002060143060600A4B00202833009003F1B0
:1018600048020C210A2000F02FFEA06010B105A153
:1018700000F098FCBDE8384000F016BC6400002081
:10188000F4080020546D72510000000030B4026C66
:101890000B46002A0BD0C1681144C1608468A14284
:1018A00001D30168C16030BC1846FEF738BD30BCBA
:1018B00070472DE9F041856B174604460026026CFF
:1018C00082B1C7B1E068FEF72AFDE168206C091A11
:1018D000E1602268914202D2A168081AE060022FFA
:1018E00016D017E02068A8B9A06801F08FF9064665
:1018F0000020A0600EE06068FEF711FD216C6068BA
:1019000008446060A168884204D32068606001E0F8
:1019100005B16D1E6D1CA5633046BDE8F08110B5A4
:10192000044690F8510058B101280CD002280FD07D
:10193000502080F31188BFF34F8FBFF36F8FFEE706
:10194000206B00F0C5FB2046BDE8104000F0C0BB96
:1019500010BD000010484FF47051420706D0C01D62
:101960000D4920F00700411AC1F570510B4A0023C0
:101970000144C2E900030839103A21F0070111605F
:101980004B600B600B1AC0E9001393604FF00040EE
:101990005360D06070470000DC0900208800002000
:1019A000114E124C4FF08057DFF8448012E000BF18
:1019B00000F05AFBF068C568281D00F0F9FA2069AC
:1019C000401E2061E068401EE06000F06DFB28468C
:1019D000FFF7A5FFE0680028EAD1C8F80070BFF360
:1019E0004F8FBFF36F8FF5E7CC0800202800002051
:1019F00004ED00E00346009829B10260C0E90F3110
:101A0000012100F094BD0060F8E72DE9F0479A4607
:101A1000DDE9098481466FF00303206B03EB82024A
:101A20001044089E20F00707780707D0502080F365
:101A30001188BFF34F8FBFF36F8FFEE7002561B1B1
:101A4000002023180A5C83F834200A5C12B1401C81
:101A50001028F6D384F8435001E084F83450072E60
:101A600000D30626E662C4E91165201D00F0D5FA10
:101A700004F1180000F0D1FA2461C6F10700646295
:101A8000A061E56484F8505052464946384600F05B
:101A900079FA2060B8F1000F01D0C8F80040BDE825
:101AA000F0872DE9F0471E46DDE9089417460D0042
:101AB000804615D0002C11D0FFF7BCFE04F11801B0
:101AC000C4F8008081E86002201D00F0A6FA002F13
:101AD00004D014F8240F40F004002070BDE8F08713
:101AE000502080F31188BFF34F8FBFF36F8FFEE755
:101AF00030B5114900E011460A688242FBD34B68B9
:101B00005C18844203D14068184448600846436822
:101B10001C18944209D1084C103C2468A24209D0F8
:101B200052681A4442600A6812680260814200D01A
:101B3000086030BD0460F9E78800002070B500241B
:101B400041600B4D0061914206D8D11A82699142E1
:101B500006D2011D686807E09A4203D2994201D378
:101B6000012403E0011D286800F05AFA204670BDE8
:101B70006400002010B5044600F076FAA06B28B18E
:101B80005FF0000400F090FA204610BD0124F9E750
:101B900030B587B0394D67E00498002864DB069CB7
:101BA000606910B1201D00F003FA03A800F0D8F816
:101BB000024604980A2857D2DFE800F00505052DF3
:101BC000334A05052D3394F8240040F0010084F8D1
:101BD00024000599A069059B01442046FFF7AEFF4C
:101BE00068B3216A2046884794F8240040073BD513
:101BF000002000900598A16900234218194620464C
:101C000001F040F9D8B9502080F31188BFF34F8F0D
:101C1000BFF36F8FFEE714F8240F20F0010020704F
:101C200022E094F8240040F0010084F82400059894
:101C3000A06128B1811813462046FFF77FFF13E00B
:101C4000502080F31188BFF34F8FBFF36F8FFEE7F3
:101C500094F82400810703D4204600F039FA03E009
:101C600020F0010084F82400002204A9A86800F0F4
:101C700099FD002890D107B030BD0000640000201D
:101C80002DE9FC410F46054600F06EFB01A800F06F
:101C900067F80446019818B101F03EF8BDE8FC81F0
:101CA000254EAFB170680068D0B30027291B3A46B3
:101CB000B06800F08BFA01F02FF80028EED11F4930
:101CC0004FF080500860BFF34F8FBFF36F8FE5E791
:101CD000A542EBD801F020F830682746C068C468F8
:101CE000201D00F065F994F82400410719D5A0697A
:101CF0002B4641193A462046FFF720FFA8B10020A5
:101D00000346014600902A46204601F0BBF860B920
:101D1000502080F31188BFF34F8FBFF36F8FFEE722
:101D200007E020F0010084F82400216A204688475B
:101D3000B4E70127BAE700006400002004ED00E0EA
:101D400006484168096829B14168C968C968496895
:101D5000016370474FF0FF31FAE7000028000020D0
:101D600070B5054600F0B2FE064E04463069844266
:101D700003D200F009F8012000E00020286020468E
:101D8000346170BD64000020F8B5194D20E0C068D2
:101D9000C4680668201D00F00BF9216A20468847B8
:101DA00094F82400400713D5A0693044B04206D906
:101DB00024616060211D286800F032F908E00020ED
:101DC0000346014600903246204601F05BF838B1E8
:101DD000286801680029DAD16968C5E90010F8BDF2
:101DE000502080F31188BFF34F8FBFF36F8FFEE752
:101DF0006400002008484068401C4FF0500080F309
:101E0000118804D0BFF34F8FBFF36F8FFEE7BFF38E
:101E10004F8FBFF36F8FFEE790000020074C2068C4
:101E2000016841B1C0680021D0F80000FFF728FF29
:101E3000FFF7AEFEF3E701210020F7E76400002082
:101E40002DE9F041044600F00FF994F9455004F1F2
:101E5000240609E0606A48B1304600F023FF08B16B
:101E600000F004FA6D1E6DB2002DF3DC4FF0FF366A
:101E700084F8456000F018F900F0F6F894F9445041
:101E800004F1100709E0206948B1384600F00AFF64
:101E900008B100F0EBF96D1E6DB2002DF3DC84F893
:101EA0004460BDE8F04100F0FFB800002DE9F041CA
:101EB0000546002700F058FA314E306808B9FFF7A0
:101EC00049FDF06805424BD1C5B3083568070ED00F
:101ED00005F00700C0F108000544680707D050204E
:101EE00080F31188BFF34F8FBFF36F8FFEE72DB3E1
:101EF0007068854234D82248103001460C6801E0F1
:101F000020460C466168A94202D221680029F7D117
:101F100031688C4224D00768216801606068083706
:101F2000411B10290FD96019420708D0502080F3B7
:101F30001188BFF34F8FBFF36F8FFEE710E0416052
:101F40006560FFF7D5FD61687068401A7060B2681F
:101F5000904200D2B060F06801430020C4E9000163
:101F600000F0DAFE780707D0502080F31188BFF325
:101F70004F8FBFF36F8FFEE73846BDE8F08100005A
:101F80007800002010B5031F4FF080741C601B1FE9
:101F900021F001011960191F044B0B6014390A600C
:101FA000091F6FF0020244380A6010BDF51D0008D9
:101FB000D0E9013201699A60D0E901235A604A6888
:101FC000824201D182684A60002202610868401E94
:101FD0000860086870470000034B036003F1540079
:101FE00008608020106070479C000020044B036054
:101FF00003F1540008604FF48070106070470000D7
:10200000F002002000F108014FF0FF32C0E9011298
:10201000C1600161002101607047002101617047CA
:1020200030B50B685A1C02D000F1080202E00269C8
:1020300004E02246546825689D42FAD953684B60F3
:1020400099608A60516008610168491C016030BD77
:1020500042684A6093688B60936859609160086138
:102060000168491C01607047502080F31188BFF35C
:102070004F8FBFF36F8F0A494868401C48600128A2
:102080000CD10848006810F0FF0F07D0502080F3F3
:102090001188BFF34F8FBFF36F8FFEE770470000CB
:1020A0009000002004ED00E00849486828B1401E77
:1020B000486001D180F311887047502080F3118867
:1020C000BFF34F8FBFF36F8FFEE70000900000203B
:1020D00070B5002827D0144DA0F108046168E868A5
:1020E000014207D1502080F31188BFF34F8FBFF317
:1020F0006F8FFEE722683AB1502080F31188BFF35A
:102100004F8FBFF36F8FFEE78143616000F02CF9C2
:1021100060686968084468602046FFF7E9FCBDE82C
:10212000704000F0F9BD70BD780000204FF0E02055
:1021300000210161816105494FF47A720968B1FBA0
:10214000F2F1491E4161072101617047240000201E
:1021500010B5FEF79DF8114910280ED300F1E020CC
:1021600090F8F0030A78904207D2502080F311884B
:10217000BFF34F8FBFF36F8FFEE709480068896890
:1021800000F4E060884207D9502080F31188BFF343
:102190004F8FBFF36F8FFEE710BD0000900000204F
:1021A0000CED00E010B5084B002200BF53F83240A0
:1021B0001CB1521C082AF9D310BD43F8321003EBAE
:1021C000C201486010BD0000C407002070B515466C
:1021D0000E460446FFF748FF94F944100020491CBE
:1021E00001D184F8440094F94510491C01D184F8C8
:1021F0004500FFF759FFA06B28B92A46314604F184
:10220000240000F051F82046BDE87040FFF718BEEA
:1022100010B5020014D00F48806B38B1502080F305
:102220001188BFF34F8FBFF36F8FFEE700F09CF86C
:1022300000211046FFF76CFA00F06EFD002807D170
:1022400005494FF080500860BFF34F8FBFF36F8F89
:1022500010BD00002800002004ED00E002498A6A59
:10226000026049694160704728000020014901204F
:10227000486270472800002010B50C4650B109494B
:1022800009681831FFF7CCFE2046BDE81040012157
:10229000FFF73EBA502080F31188BFF34F8FBFF392
:1022A0006F8FFEE72800002070B514460D4668B118
:1022B0000A4909681831FFF7CBFE0CB14FF0FF3522
:1022C00021462846BDE87040FFF722BA502080F32F
:1022D0001188BFF34F8FBFF36F8FFEE728000020F8
:1022E00030B587B00024039405AA04A903A8049478
:1022F000FFF772FEDDE903010094CDE90110002330
:1023000015A11748059A00F046FB164D0028686392
:102310001FD000F087FD012809D0401C19D15020A2
:1023200080F31188BFF34F8FBFF36F8FFEE750200C
:1023300080F31188BFF34F8FBFF36F8F4FF0FF30E3
:1023400028630120E8616C6107B0BDE8304000F00F
:1023500041B807B030BD000049444C4500000000C2
:10236000A1190008280000200248816B491C8163E4
:1023700070470000280000201448816B11B1012132
:1023800041627047002141628169B1FA81F1C1F176
:102390001F0101EB81020E4951F822306BB101EBB4
:1023A000820101F108034A6852684A609A4201D1E9
:1023B00052684A60D16801607047502080F31188EC
:1023C000BFF34F8FBFF36F8FFEE7000028000020A0
:1023D000040800201CB537480168374A914207D1EC
:1023E000502080F31188BFF34F8FBFF36F8FFEE74C
:1023F00000683149491E884207D1502080F3118876
:10240000BFF34F8FBFF36F8FFEE72C490878019021
:10241000FF20087008788DF800009DF800009DF8F6
:10242000002000F0F000904207D0502080F3118887
:10243000BFF34F8FBFF36F8FFEE79DF80000204B77
:1024400000F0500018700720986005E09DF800200B
:1024500052008DF80020401E9DF800201206F5D491
:102460009860032807D0502080F31188BFF34F8F66
:10247000BFF36F8FFEE74FF44070986001980870CB
:102480000C482030016841F470010160016841F09E
:1024900070410160FFF74AFE00205860FDF7C0FE62
:1024A0000848016841F040410160FDF7A5FE0020A9
:1024B0001CBD000000ED00E071C20F4100E400E02F
:1024C0009000002034EF00E038B5049D18B153B1FE
:1024D000CAB181B120E0502080F31188BFF34F8F43
:1024E000BFF36F8FFEE7502080F31188BFF34F8F4B
:1024F000BFF36F8FFEE7502080F31188BFF34F8F3B
:10250000BFF36F8FFEE739B1502080F31188BFF31E
:102510004F8FBFF36F8FFEE748241C46012384F8DA
:1025200046302B460094FFF765FA204638BD70B55B
:102530000D46040025D0FFF797FDD4E90F20216850
:1025400002FB0011A1600021A163216861600A46BD
:10255000D4E90F01401E00FB0121E16021464FF04C
:10256000FF3001F8440F487004F110008DB1FFF7FF
:1025700049FD04F12400FFF745FDFFF795FD01201B
:1025800070BD502080F31188BFF34F8FBFF36F8F62
:10259000FEE721690029F0D000F084FBEDE70000A0
:1025A0002DE9FF41002682B01D468846040003D075
:1025B000B8F1000F08D011E0502080F31188BFF36C
:1025C0004F8FBFF36F8FFEE7206C38B1502080F340
:1025D0001188BFF34F8FBFF36F8FFEE7022D0AD133
:1025E000E06B012807D0502080F31188BFF34F8F94
:1025F000BFF36F8FFEE700F05BFA002748B904983D
:1026000038B1502080F31188BFF34F8FBFF36F8F25
:10261000FEE7FFF729FDA06BE16B884205D3022D91
:1026200003D0049890B1A6B117E02A46414620464F
:10263000FFF73FF9606A18B104F1240000F032FBA3
:10264000FFF732FD012006B0BDE8F081FFF72CFD59
:1026500021E06846FFF702FE0126FFF725FDFFF7A0
:1026600083FEFFF701FD94F94400401C01D184F87A
:10267000447094F94500401C01D184F84570FFF77F
:1026800013FD04A9684600F01FF930B12046FFF79A
:10269000D7FB00F041FB0020D5E7FFF7E5FCA06B7E
:1026A000E16B884216D1FFF7FFFC04F1100004999A
:1026B000FFF7E2FD2046FFF7C3FB00F02DFB0028EB
:1026C000A7D108494FF080500860BFF34F8FBFF388
:1026D0006F8F9EE7FFF7E8FC2046FFF7B1FB00F0A5
:1026E0001BFB96E704ED00E02DE9F0471F469046FE
:1026F0008946040003D0B9F1000F08D011E0502042
:1027000080F31188BFF34F8FBFF36F8FFEE7206C0C
:1027100038B1502080F31188BFF34F8FBFF36F8F14
:10272000FEE7022F0AD1E06B012807D0502080F38A
:102730001188BFF34F8FBFF36F8FFEE7FFF708FDE0
:102740005020EFF3118680F31188BFF34F8FBFF352
:102750006F8FA06BE16B884206D3022F04D000205C
:1027600086F31188BDE8F08794F945503A4649460A
:102770002046FFF79EF8681C04D06D1C84F8455075
:102780000120EDE7606A0028FAD004F1240000F08F
:1027900089FA0028F4D0B8F1000FF1D00121C8F86F
:1027A0000010EDE72DE9F741002683B088460400CC
:1027B00003D0B8F1000F08D011E0502080F3118849
:1027C000BFF34F8FBFF36F8FFEE7206C38B15020FF
:1027D00080F31188BFF34F8FBFF36F8FFEE700F0D8
:1027E00067F9002748B9059838B1502080F311885F
:1027F000BFF34F8FBFF36F8FFEE7FFF735FCA56B7D
:102800008DB141462046FFF741F86D1EA563206952
:1028100018B104F1100000F045FAFFF745FC012063
:1028200006B0BDE8F081059808B11EB106E0FFF7DB
:102830003BFC27E06846FFF711FD0126FFF734FC5B
:10284000FFF792FDFFF710FC94F94400401C01D102
:1028500084F8447094F94500401C01D184F8457017
:10286000FFF722FC05A9684600F02EF80028204654
:102870000AD0FFF7E5FA00F04FFA2046FFF77AF9A1
:102880000028BAD00020CBE7FFF774F9A0B104F11B
:1028900024000599FFF7F0FC2046FFF7D1FA00F07D
:1028A0003BFA0028A9D107494FF080500860BFF3D8
:1028B0004F8FBFF36F8FA0E72046FFF7C1FA00F0FC
:1028C0002BFA9AE704ED00E02DE9F0410C460500F3
:1028D00011D0C4B1FFF7C8FB174B5A696E68206866
:1028E000911B471C17D02F689B6A9F4219D09642B4
:1028F00017D8012410E0502080F31188BFF34F8FC8
:10290000BFF36F8FFEE7502080F31188BFF34F8F26
:10291000BFF36F8FFEE70024FFF7C6FB2046BDE83C
:10292000F081884205D9401A20602846FFF796FCBE
:10293000F1E700202060DCE7280000202DE9FF5FA0
:102940008346DDE90E87994616468A469000FFF7D2
:10295000ADFA05001CD05420FFF7A8FA040014D0EB
:102960000020256384F85100CDE90240CDE90087BD
:102970004B46324651465846FFF747F82046FEF789
:10298000FFFE012004B0BDE8F09F2846FFF7A0FB42
:102990004FF0FF30F6E7F0B585B0DDE90B640A9D36
:1029A000A6B1DCB1542700972663022684F8516053
:1029B000002604AFCDE90246CDE90057FFF725F820
:1029C0002046FEF7DDFE049805B0F0BD502080F3F0
:1029D0001188BFF34F8FBFF36F8FFEE7502080F356
:1029E0001188BFF34F8FBFF36F8FFEE72DE9F041E2
:1029F0001F4690460D46012690B10446FFF734FB72
:102A00000FB1E06C386094F85000022184F8501047
:102A1000B8F1050F19D2DFE808F0230B0E141200ED
:102A2000502080F31188BFF34F8FBFF36F8FFEE705
:102A3000E16C294301E0E16C491CE16410E00228EB
:102A400001D0E5640CE0002629E0E16C491C07D0C8
:102A5000502080F31188BFF34F8FBFF36F8FFEE7D5
:102A600001281CD1201DFFF7A3FA0F4DE06A0121B8
:102A7000AA6981401143A9610C4900EB800001EB78
:102A80008000211DFFF7E4FAA06A38B1502080F3DE
:102A90001188BFF34F8FBFF36F8FFEE72868FFF7F2
:102AA00003FB3046BDE8F081280000200408002028
:102AB0000548C16919B1806B18B100207047012029
:102AC000704702207047000028000020014840693C
:102AD00070470000280000202DE9F047264C4FF0F9
:102AE0000009A06B28B1206A401C20624846BDE85E
:102AF000F0876669761C666113D16068006838B13A
:102B0000502080F31188BFF34F8FBFF36F8FFEE724
:102B10006068A1686160A060A06A401CA062FFF7C5
:102B20000FF9206B8642E1D3DFF8508001276068FF
:102B3000006838B16068C068C5686868864204D2B9
:102B40002063D3E74FF0FF30FAE7281DFFF730FA94
:102B5000A86A18B105F11800FFF72AFAE86AA26915
:102B600007FA00F11143A16100EB800108EB81003D
:102B7000291DFFF76DFADAE728000020040800207D
:102B80002DE9F0411E46154688460746FFF76CFAC8
:102B90001C4C206890F85000022814D02068C16CAA
:102BA000B943C1642168012081F850005EB1012160
:102BB0003046FEF7ADFD14494FF080500860BFF37A
:102BC0004F8FBFF36F8FFFF76FFAFFF74DFA15B115
:102BD0002068C06C2860206890F85000022801D05E
:102BE000002505E02068C16C21EA0801C1640125C7
:102BF0002168002081F85000FFF756FA2846BDE80A
:102C0000F08100002800002004ED00E070B5040011
:102C10004FF0000140D0214D2868844207D0502059
:102C200080F31188BFF34F8FBFF36F8FFEE7A06C67
:102C300038B1401EA064636CE26A9A422CD040B165
:102C40002AE0502080F31188BFF34F8FBFF36F8FBE
:102C5000FEE7201DFFF7ACF9114A012150B9E06AE7
:102C600000EB800352F8233023B9AB6901FA00F07E
:102C70008343AB61606CE062C0F10700A061E06A71
:102C8000AB6981401943A96100EB800002EB800031
:102C9000211DFFF7DDF90121084670BD2800002045
:102CA000040800202DE9F041C068C468ACB104F10B
:102CB00018000746FFF77CF9154DA86B0126A0B157
:102CC00039461448FFF7C4F9E06A2968C96A88429E
:102CD0001CD901206E62BDE8F081502080F311887C
:102CE000BFF34F8FBFF36F8FFEE7201DFFF760F933
:102CF000E16AAA6906FA01F01043A86101EB8100BC
:102D00000449B43901EB8000211DDBE70020E2E734
:102D100028000020B80800202DE9F047264D0024A7
:102D2000A146A86B38B1FFF79FF9A86B401EA863B6
:102D3000A86B40B13BE0502080F31188BFF34F8F68
:102D4000BFF36F8FFEE728691C4F012678B3A7F108
:102D5000B4083868E0B1F868C46804F11800FFF7F7
:102D600027F9201DFFF724F9E16AAA6906FA01F0A4
:102D70001043A86101EB810108EB8100211DFFF7E1
:102D800067F9E06A2968C96A8842E2D36E62E0E7BF
:102D90000CB1FEF7D5FF2C6A44B100BFFFF79CFED3
:102DA00000B16E62641EF9D100202862686AFFF7E4
:102DB0007BF94846BDE8F08728000020B8080020CD
:102DC0002DE9FC4781461E461746884628200A9D65
:102DD000FFF76CF804000AD0002084F82400CDE945
:102DE000005433463A4641464846FEF75AFE2046CE
:102DF000BDE8FC877CB52826DDE90654009644B181
:102E0000022684F82460CDE90054FEF74AFE2046ED
:102E10007CBD502080F31188BFF34F8FBFF36F8FBD
:102E2000FEE7000010B586B0FEF704FD114CA06867
:102E3000B8B100200390049005AA04A903A8FFF7E5
:102E4000D5F8DDE9032102208DE8070000230AA15F
:102E50000B48059AFFF79FFDE06010B106B0012016
:102E600010BD502080F31188BFF34F8FBFF36F8FD9
:102E7000FEE7000064000020546D7220537663006A
:102E80001D1E0008FEB51E4613460200089D4FF0A9
:102E9000000014D0124CA768002F0FD0CDE900130A
:102EA0000292062915DAFFF703FE02284FF000030D
:102EB0000DD000226946A068FFF772FBFEBD5020CE
:102EC00080F31188BFF34F8FBFF36F8FFEE72A4661
:102ED000F0E70023324669463846FFF705FCFEBDA1
:102EE00064000020D903000800000000ED03000882
:102EF00000000000782F0008951100080000000075
:102F00000000000080000000000000000000000041
:102F1000602F0008551100080000000000000000AC
:102F20008000000000000000000000006C2F00087E
:102F30007511000801000000000000008000000082
:102F40000000000000000000000000000000000081
:102F5000010203040607080900000000010203043F
:102F60005461736B5F437041703100005461736B47
:102F70005F4370417032000064656661756C745423
:102F800061736B00A42F0008000000209C0000006B
:102F90003A150008403000089C0000204449000019
:102FA0004A150008000000000000000000000000BA
:102FB0000000000000000000000000000100000010
:102FC00010000000000000000024F40000000000D9
:102FD00000000000000000000000000000000000F1
:102FE00000000000000000000000000000000000E1
:102FF00000000000000000000000000000000000D1
:1030000000000000000000000000000000000000C0
:1030100000000000000000000000000000000000B0
:1030200000000000000000000000000000000000A0
:103030000000000000000000AAAAAAAA00000000E8
:04000005080001C529
:00000001FF
