:020000040800F2
:10000000E049002099020008971000081F1000081E
:1000100095100008C9030008B5150008000000008D
:10002000000000000000000000000000D9010008EE
:10003000E1030008000000003502000899100008E4
:10004000B3020008B3020008B3020008B3020008BC
:10005000B3020008B3020008B3020008B3020008AC
:10006000B3020008B3020008B3020008B30200089C
:10007000B3020008B3020008B3020008B30200088C
:10008000B3020008B3020008B3020008B30200087C
:10009000B3020008B3020008B3020008B30200086C
:1000A000B3020008B3020008B3020008B30200085C
:1000B000B302000869110008B3020008B302000887
:1000C000B3020008B3020008B3020008B30200083C
:1000D000B3020008B3020008B3020008B30200082C
:1000E000B3020008B3020008B3020008B30200081C
:1000F000B3020008B3020008B3020008B30200080C
:10010000B3020008B3020008B3020008B3020008FB
:10011000B3020008B3020008B3020008B3020008EB
:10012000B3020008B3020008B3020008B3020008DB
:10013000B30200080000000000000000B302000845
:10014000B3020008B3020008B3020008B3020008BB
:10015000B3020008B3020008B3020008B3020008AB
:10016000B3020008B3020008B3020008B30200089B
:10017000B3020008B3020008B30200080000000048
:1001800000000000B30200080000000000000000B2
:10019000B30200080000000000000000B3020008E5
:1001A000000000000000000000000000B302000892
:1001B000B3020008B3020008B3020008B30200084B
:1001C000B3020008DFF80CD000F0ECF8004800475C
:1001D00001160008E04900202C4B19680868B0E8B7
:1001E000F04F80F30988BFF36F8F4FF0000080F36A
:1001F000118870470000000008480068006880F31C
:1002000008884FF0000080F3148862B661B6BFF32F
:100210004F8FBFF36F8F00DF00BF00BF08ED00E01E
:10022000DFF80C00016841F470010160704700BF05
:1002300088ED00E0EFF30980BFF36F8F134B1A686E
:100240001EF0100F08BF20ED108A20E9F04F10605B
:1002500009B44FF0500080F31188BFF34F8FBFF304
:100260006F8F02F00BFA4FF0000080F3118809BC89
:1002700019680868B0E8F04F1EF0100F08BFB0EC26
:10028000108A80F30988BFF36F8F70472C0000201D
:10029000EFF3058070470000064880470648004796
:1002A000FEE7FEE7FEE7FEE7FEE7FEE7FEE7FEE726
:1002B000FEE7FEE74D110008C50100082DE9F05FDB
:1002C0000546002092469B468846064681464024C5
:1002D0001BE0284641464746224600F053F8534665
:1002E0005A46C01A914110D311461846224600F0D2
:1002F0003AF82D1A67EB01084F46224601200021EB
:1003000000F031F817EB00094E41201EA4F1010462
:10031000DFDC484631462A464346BDE8F09F40EAC6
:1003200001039B0703D009E008C9121F08C0042A73
:10033000FAD203E011F8013B00F8013B521EF9D25A
:100340007047D2B201E000F8012B491EFBD2704782
:100350000022F6E710B513460A4604461946FFF791
:10036000F0FF204610BD202A04DB203A00FA02F1FB
:10037000002070479140C2F1200320FA03F3194393
:1003800090407047202A04DB203A21FA02F0002135
:10039000704721FA02F3D040C2F120029140084395
:1003A00019467047064C074D06E0E06840F001032F
:1003B00094E8070098471034AC42F6D3FFF706FFE5
:1003C0007436000894360008FEE700000348002356
:1003D00001220221006802F0F3BD000000000020AD
:1003E000704700002DE9F84F00224FF00108032567
:1003F0004FF00F0E0B6808FA02F42340A3426ED1AF
:100400004E68012E05D0022E03D0112E01D0122EDF
:1004100012D186684FEA420C05FA0CF7BE43CF684A
:1004200007FA0CF7374387604668A6430C79C4F394
:100430000014944034434460C668570005FA07FC32
:100440008C6826EA0C06BC403443C4604C68022C1D
:1004500001D0122C13D1D40800EB8404A346D4F8A5
:10046000209054074FEAD46A0EFA0AF629EA0609E0
:100470000E6906FA0AF646EA0906CBF82060066815
:100480000C7926EA0C0604F00304BC4034430460F3
:100490004C68E40060D5334C266846F480462660FC
:1004A000246822F0030604F4804400942E4C344463
:1004B000A446D4F808489607370F0EFA07F6B44357
:1004C0002A4EB04201D100261FE0294EB04201D190
:1004D00001261AE0274EB04202D1022615E03BE089
:1004E000254EB04201D103260FE0244EB04201D187
:1004F00004260AE0224EB04201D1052605E0214E35
:10050000B04201D1062600E00726BE402643CCF8C3
:1005100008681D4E34684F689C43FF0300D51C4398
:100520003460194E361D34684F689C43BF0300D5B4
:100530001C433460144E083634684F689C43FF02F5
:1005400000D51C433460104E0C3634684F689C4311
:10055000BF0200D51C433460521C102AFFF44AAF7E
:10056000BDE8F88F443802400030014000000240EE
:100570000004024000080240000C0240001002404B
:100580000014024000180240003C0140006908408D
:1005900000D001207047426931EA020200D109040B
:1005A000816170470AB1816170470904FBE700006F
:1005B00001488068704700001C00002002488168E4
:1005C00002781144816070471C0000200B4810B570
:1005D000016841F400710160016841F480610160CB
:1005E000016841F480710160032000F08DF8002063
:1005F00000F006F800F03EF8002010BD003C02407C
:1006000010B5014688B000221D2000F05DF81D20C5
:1006100000F04CF813480024016841F00201016029
:10062000006805A900F002000690684600F018F97D
:1006300000F036F90C494000B0FBF1F10C480B4AD0
:10064000491E026040F2E732C0E90324C0E9011408
:1006500000F034FB10B1012008B010BD044800F0D8
:1006600049FBF9E74038024040420F0000040040D7
:10067000880700200C4882B0016841F48041016085
:10068000006800F4804000900748001F016841F0B6
:10069000805101600068002200F0805000900F211E
:1006A000901E02B000F010B844380240002809DB68
:1006B00000F01F02012191404009800000F1E0207C
:1006C000C0F8001170470000F0B40E4B1B680C46D8
:1006D000C3F30223C3F10705042D00D90425191D16
:1006E000072901D2002300E0DB1E012606FA05F1EE
:1006F000491E214099409E40761E16403143F0BC71
:1007000000F059BF0CED00E0064900F00702086850
:100710004FF6FF03184040EA0220034A10430860E6
:10072000704700000CED00E00000FA052DE9F047ED
:100730000E46050065D0DFF81481D8F80000F7B246
:1007400000F00F00B04207D288F80070D8F800001F
:1007500000F00F00B04254D128683D4C810712D5FB
:10076000400703D5206840F4E05020602878000757
:1007700003D5206840F4604020602068A96820F01C
:10078000F000084320602878C0072DD03049686801
:100790000839012812D0022813D0032811D0096883
:1007A000890700292DDA216821F003010143216026
:1007B000FFF7FEFE814641F2883A0EE009688903A0
:1007C000EFE709688901ECE7FFF7F2FEA0EB09010A
:1007D000514502D90320BDE8F0872068696800F020
:1007E0000C00B0EB810FEFD1D8F80010404601F0BB
:1007F0000F01B14207D90770006800F00F00B04246
:1008000001D00120E7E72878400705D52068E9688E
:1008100020F4E050084320602878000706D52068BF
:10082000296920F4604040EAC100206000F058F8D7
:100830002168084AC1F30311515CC84006490860A9
:1008400006480068FFF7DCFE0020C4E7003C0240D9
:10085000083802402C360008280000202000002024
:100860000F2202600C4A136803F00303436013680D
:1008700003F0F0038360136803F4E053C36012686D
:100880004FF4E05303EAD20202610448006800F02A
:100890000F0008607047000008380240003C02402A
:1008A0000448054900680968044AC1F38221515C83
:1008B000C840704728000020083802403C36000835
:1008C0000448054900680968044AC1F34231515C93
:1008D000C840704728000020083802403C36000815
:1008E000224810B5006810F00C02214815D04110C4
:1008F000042A11D01D4C241F082A0FD00C2A0CD119
:100900002268236802F03F025B0221D52068C0F311
:100910008810A0FB010120E0084610BD2268236872
:1009200002F03F025B0205D52068C0F38810A0FBEF
:10093000010104E02168C1F38811A1FB000100233B
:10094000FFF7BCFC2168C1F30141491C49000AE0E2
:100950002168C1F38811A1FB00010023FFF7AEFC61
:100960002168C1F30271B0FBF1F010BD08380240FC
:100970000024F4002DE9F84F0546DFF828B300788D
:10098000ABF10407C007A7F1040451D0DBF8001055
:100990005846C1F3810101290FD00168C1F38101DB
:1009A000022902D13968490207D40068C0F38100E6
:1009B000032809D13868400206D52068800337D55E
:1009C0006868002872D033E06868B0F5803F10D0C6
:1009D000B0F5A02F206810D020F48030206020686F
:1009E00020F4802020606868A8B1FFF7E1FD06468A
:1009F0000DE0206840F48030F4E740F4802020606F
:100A0000F7E700BFFFF7D4FD801B642878D8206883
:100A10008003F7D50CE0FFF7CBFD064605E000BFED
:100A2000FFF7C6FD801B6428F0D820688003F7D448
:100A30002878DFF8749280074FF0000A46D5DBF87B
:100A40000010584611F00C0F0FD00168C1F381015E
:100A5000022902D13968490207D50068C0F3810034
:100A6000032809D13868400206D42068800715D5CC
:100A7000E86801281AD111E0E868C0B10120C9F87E
:100A80000000FFF795FD064605E000BFFFF790FD6B
:100A9000801B0228BAD820688007F7D5206829690A
:100AA00020F0F80040EAC10020600FE0F7E0C9F84C
:100AB00000A0FFF77DFD064605E000BFFFF778FDCB
:100AC000801B02281CD820688007F7D428780007EC
:100AD00027D5DFF8D0817548696908F16C0881B1C4
:100AE00001210160FFF764FD064604E0FFF760FDA9
:100AF000801B022804D8D8F800008007F6D510E043
:100B000089E0C0F800A0FFF753FD064605E000BFEE
:100B1000FFF74EFD801B02287DD8D8F80000800723
:100B2000F6D42878400769D55E484FF00008383081
:100B30000068C0000BD45B483830016841F0805138
:100B4000016000684FF0010800F080500090584E9E
:100B50003068C00511D4306840F480703060FFF711
:100B600027FD009006E000BFFFF722FD0099401A24
:100B7000022850D83068C005F6D54A4EA8686836B5
:100B800001280FD00528306810D020F00100306017
:100B9000306820F004003060A868B8B1FFF708FDA5
:100BA00000900FE0306840F00100F4E740F00400EE
:100BB0003060F7E7FFF7FCFC0099411A41F28830FA
:100BC000814264D830688007F4D50EE0FFF7F0FC6E
:100BD000009007E0FFF7ECFC0099411A41F28830E1
:100BE000814254D830688007F4D4B8F1000F05D0A2
:100BF0002C483830016821F080510160A869A8B301
:100C0000DBF80010C1F38101022948D00228C9F89D
:100C100060A005D000E03AE0FFF7CAFC054639E0E5
:100C2000FFF7C6FC064604E0FFF7C2FC801B022863
:100C30002DD820688001F7D4F5E907010843E96859
:100C40001C4A490802EB0141AA6841EA82110843A3
:100C5000297C40EA0160297D40EA0170386001206A
:100C6000C9F86000FFF7A4FC054606E015E000BFE8
:100C7000FFF79EFC401B022809D820688001F7D5A9
:100C80000BE000BFFFF794FC401B022802D90320B1
:100C9000BDE8F88F20688001F4D40020F8E7012037
:100CA000F6E700000838024000004742800E474245
:100CB000007000400000FFFF7047704710B504004F
:100CC00003D094F83D0010B107E0012010BD0020D2
:100CD00084F83C00204600F00CF8022084F83D0027
:100CE000211D206800F046FA012084F83D00002014
:100CF00010BD70470168CA6842F00102CA6000680E
:100D0000816801F00701062903D0016841F0010163
:100D1000016000207047704770B5044600680169A3
:100D20004FF00005C943890715D4C168C943890735
:100D300011D4E91E016101202077206880698007B5
:100D4000204602D0FFF7E7FF04E000F098F82046C5
:100D500000F096F8257720680169C943490717D440
:100D6000C168C943490713D46FF00401016102202F
:100D700020772068806910F4407F204602D0FFF77A
:100D8000CAFF04E000F07BF8204600F079F82577F0
:100D900020680169C943090716D4C168C943090716
:100DA00012D46FF008010161042020772068C06927
:100DB0008007204602D0FFF7AEFF04E000F05FF8A6
:100DC000204600F05DF8257720680169C943C9060F
:100DD00017D4C168C943C90613D46FF0100101616B
:100DE000082020772068C06910F4407F204602D098
:100DF000FFF791FF04E000F042F8204600F040F8D1
:100E0000257720680169C943C90708D1C168C9436A
:100E1000C90704D1891E0161204600F033F820681B
:100E20000169C943090609D4C168C943090605D443
:100E30006FF0800101612046FFF73EFF20680169E5
:100E4000C943490609D4C168C943490605D46FF0AE
:100E500040010161204600F01FF820680169C94384
:100E600089060BD4C168C943890607D46FF02001F5
:100E700001612046BDE87040FFF71FBF70BD70479D
:100E80007047000000680349884201D1FFF796BB14
:100E90007047000000040040704770B5040004D0A3
:100EA00094F83900002510B106E0012070BD84F8E7
:100EB0003850204600F022F8242084F839002068B9
:100EC000C16821F40051C160204600F0ADFA2068ED
:100ED000016921F4904101612068416921F02A01F2
:100EE00041612068C16841F40051C160E563202080
:100EF00084F8390084F83A00002070BD10B586B03F
:100F0000044614216846FFF723FA134920688842F3
:100F100020D112480021026842F4003202600068C9
:100F200000F4003005900D481038026842F00102CC
:100F30000260006800F0010005900C200090022083
:100F4000CDE901010320039007200490694604487D
:100F5000FFF748FA06B010BD004400404038024098
:100F6000000002402DE9F843044690F839001F467E
:100F700016460D46202850D1B5B1AEB194F83800D0
:100F800001284AD0012084F838004FF00008C4F846
:100F90003C80212084F83900FFF70AFBA6848146B3
:100FA000E68484F8388026E00120BDE8F883E08CF0
:100FB000401EE084A0684B46B0F5805F4FF0000211
:100FC0004FF080012046009703D000F0C1FAE8B945
:100FD0000DE000F0BDFAC8B928882168C0F3080008
:100FE0004860206908B16D1C05E0AD1C03E0216874
:100FF00015F8010B4860E08C0028D8D14B46002240
:1010000040212046009700F0A3FA08B10320CCE766
:10101000202084F839000020C7E70220C5E7FEE75A
:1010200030B587B014216846FFF792F916480024BE
:10103000016841F004010160016801F004010591BB
:10104000016841F0010101600068104D00F00100ED
:101050000590224620212846FFF7A4FA4FF40050BD
:10106000CDE9000469460A480294FFF7BBF9202045
:1010700000900120CDE90104694628460394FFF75A
:10108000B1F907B030BD0000303802400000024026
:1010900000080240FEE7704710B5502080F3118829
:1010A000BFF34F8FBFF36F8F02F00EF818B10449F2
:1010B0004FF080500860002080F3118810BD0000C0
:1010C00004ED00E030B593B034216846FFF740F9F5
:1010D00014210DA8FFF73CF91A480025016841F0DA
:1010E00080510160006800F080501290164801683D
:1010F00021F4404141F4804101600068022400F481
:101100004040129001200390102000940694049017
:10111000CDE907504FF4A87009900420CDE90A04E6
:1011200068460C94FFF726FC0DA90F2081E83100DA
:10113000E002CDE9100502210DA8FFF7F7FA13B080
:1011400030BD000040380240007000400548016892
:1011500041F47001016003494FF00060803908607C
:101160007047000088ED00E00148FFF7D5BD0000A2
:1011700088070020F0B50268254C264D264E274FE3
:10118000274B4FF0804CA04209D0604507D0A842C1
:1011900005D0B04203D0B84201D0984204D122F029
:1011A000700E4A6842EA0E02A0421BD0604519D078
:1011B000A84217D0B04215D0B84213D0984211D0EF
:1011C000184DA8420ED0184DA8420BD0174DA8427A
:1011D00008D0174DA84205D0164DA84202D0164D92
:1011E000A84203D122F44075CA682A434D6922F00F
:1011F00080022A4302608A68C2620A688262A04250
:1012000001D0984201D10969016301214161F0BD1A
:10121000000001400004004000080040000C0040B5
:1012200000040140004001400044014000480140EA
:1012300000180040001C00400020004090B03C22FC
:1012400017A16846FFF76BF8244D00200F904FF46C
:101250007A71A86900F030FB214E4FF0FF3423462D
:101260000FAAFF21002001F093FF0F988007F6D509
:1012700020213046FFF78FF92146286901F052FD01
:101280000A233C2269461748FFF76CFE00231A46E2
:101290001946286901F04EFB0A2000F0B7FFDEE78F
:1012A00072756E6E696E6720546872656164312074
:1012B00049206E65656420746F206D616B652074D4
:1012C000686973206D657373616765207265616C11
:1012D0006C79206C6F6E6720200D0A0000000020E2
:1012E00000000240A000002086B0142215A168462C
:1012F000FFF715F8184E194C4FF400554FF0FF3713
:101300004FF47A7829463046FFF740F9A8B9012210
:1013100000231146A06801F053FE3946206901F010
:1013200001FD0223112269460D48FFF71BFE002331
:101330001A461946206901F0FDFA404600F0D2F93C
:10134000E0E7000072756E6E696E67205468726522
:101350006164320D0A000000000802400000002015
:10136000A000002088B01C2214A16846FEF7D7FF19
:101370000020194D0446461E0790334607AAFF2158
:10138000002001F005FF0798C007F6D03146286914
:1013900001F0C8FC02231A2269461048FFF7E2FD5B
:1013A00000231A461946286901F0C4FA641CE4B205
:1013B000C8222146686900F0FFF9DEE772756E6E9B
:1013C000696E672054687265616433206D6573735C
:1013D0006167650D0A00000000000020A0000020E9
:1013E0001FB50EA00E4C00684FF4C8760A25009079
:1013F000324601A8616900F095F902980028F7D0FB
:10140000B0FBF5F105FB110030308DF80000022330
:10141000032269460348FFF7A5FDE9E7200D0A000E
:1014200000000020A00000202DE9F04104460068E3
:101430000169E26821F44051114301612169A0680A
:10144000E26908436169114308432168CA6849F2A7
:101450000C639A430243CA6020684169A26921F47F
:10146000407111434161E069192764253226B0F5C6
:10147000004F354A354920684FF0000806D08842B1
:1014800001D0904236D1FFF71BFA35E0884201D0F7
:10149000904202D1FFF714FA01E0FFF701FA616808
:1014A0004A18A0FB070148EB0803FEF707FF0146B7
:1014B000B0FBF5F00201B1FBF5F06FF018035843F3
:1014C00001EB800006EBC000B0FBF5F000F0F80087
:1014D00002EB4002B1FBF5F0584301EB800006EB54
:1014E000C000B0FBF5F000F00700216810448860F0
:1014F000BDE8F081FFF7D4F961688B0F8A00A0FB8B
:101500000701FEF7DBFE0146B0FBF5F06FF01802B5
:10151000504301EB800006EB0010B0FBF5F000F04B
:10152000F002B1FBF5F002EB0012B1FBF5F06FF049
:101530001803584301EB800006EB0010B0FBF5F0F8
:1015400000F00F00D1E7000000140140001001403E
:101550002DE9F041984617460E460446069D1DE0CB
:10156000681C1BD02DB1FFF723F8A0EB0800A842A0
:1015700014D92068C16821F4D071C1602068416924
:1015800021F001014161202084F8390084F83A00FB
:10159000002084F838000320BDE8F081206800684E
:1015A00036EA000004D00020B842D9D00020F3E78A
:1015B0000120F9E7FEE70907090E002804DB00F126
:1015C000E02080F80014704700F00F0000F1E020E8
:1015D00080F8141D704702E008C8121F08C1002AD5
:1015E000FAD170477047002001E001C1121F002AA4
:1015F000FBD17047EFF30580002800D00120704731
:10160000A4B0FEF7E3FFFFF75DFDFFF709FD2F48EC
:101610002D49002501604FF4E131C0E901150C218D
:10162000C560C0E904518561C561FFF736FC284EED
:101630000DF1700C06F108000FC88CE80F000021B6
:101640001CA800F05BF8234C6061209520A8219530
:1016500000F0E0F82061D6E90001CDE92201002286
:10166000012122A800F008F9A0611C2206F118014E
:101670006846FEF754FE0021684600F0D3F820606B
:101680001C2206F1340107A8FEF749FE002107A835
:1016900000F0C8F860601C2206F150010EA8FEF7A9
:1016A0003EFE00210EA800F0BDF8A0601C2206F14D
:1016B0006C0115A8FEF733FE002115A800F0B2F862
:1016C000E06000F016F8FEE700440040A0000020B3
:1016D000A43500080000002001460020842900D025
:1016E000C81C704710B500B9012000F0BFFE0020F3
:1016F00010BD10B500F076FF002010BD38B5D0E960
:10170000011204683AB1C3682BB100200090204652
:1017100001F098F838BD2046BDE83840002201F0BD
:101720006DB800002DE9FF410D004FF00006CDE936
:10173000016507461ED000240396501C1FD002B13D
:101740001446FFF757FF69464FF01008E8B103AAA7
:101750002846091D01F098FA012813D00096039835
:10176000E8B114494FF080500860BFF34F8FBFF3CA
:101770006F8F14E0802031462A46009011E04FF030
:10178000FF34DEE7CDF80080E9E722462846091D50
:1017900001F0DEF9012808D054B1402000909DE806
:1017A000070087E80700BDE8FF81CDF80080F6E775
:1017B0000020F3E704ED00E037B5054682B00020D5
:1017C0000090140000D10124FFF714FF4FF0000334
:1017D00088B16A4603A9284601F05CF9012811D1B5
:1017E000009890B10A494FF080500860BFF34F8FC6
:1017F000BFF36F8F09E0224603A9284601F09AF84B
:10180000012802D0FF2005B030BD0020FBE700001A
:1018100004ED00E041684FF0010009B100F0E1BFC4
:1018200000F0D4BF7FB50D4604464169B0F9080009
:1018300081B1A16971B1FFF74FFFD4E905128DE8BD
:101840000700D4E900102B46226901F08EFB0390BB
:1018500004B070BDFFF740FF03A9CDE90001208A65
:101860002B4682B2D4E9001001F052FB012801D0CE
:101870000020EDE70398EBE71CB511C86CB1CDE98A
:101880000004012907D0002013460246012109A0C7
:1018900001F010FE1CBD0120F6E70090012907D0E1
:1018A000002013460246012102A001F0E9FD1CBD03
:1018B0000120F6E7000000002DE9FC410025074665
:1018C0002E4601950C0000D10124FFF793FE0096EF
:1018D00090B101AB22460921384601F033FE0128C0
:1018E00012D1019888B10A494FF080500860BFF3C7
:1018F0004F8FBFF36F8F08E0002322460421384644
:1019000001F020FE012800D0FF252846BDE8FC811B
:1019100004ED00E02DE9F041184C0F4605466669DC
:101920002068001D00F073FC38B9206890F82C1076
:1019300001208840A1698143A161681C07D137B1AA
:101940002168BDE8F0410E48091D00F0AFBC2068D9
:101950003544B5424560216805D2A068BDE8F04134
:10196000091D00F08BBC6068091D00F087FC206B2E
:10197000854200D22563BDE8F08100002C000020E4
:10198000E40800202DE9F041054600F09BFC2E4CB8
:101990002069401C206120682C4F10B1E06940B3E1
:1019A0002DE025602069012829D1002606EB86005C
:1019B00007EB800000F054FC761C072EF6D323487A
:1019C0008C3000F04DFC2148A03000F049FC1F484D
:1019D000B43000F045FC1D48C83000F041FC1B4805
:1019E000DC3000F03DFC19488C3060601430A060A1
:1019F00005E02068E96AC06A884200D82560E06A8C
:101A0000401CE062E96A0120A26988401043A0619D
:101A100001EB810007EB8000291D00F047FC00F07E
:101A200071FCE06900280CD02068E96AC06A88422D
:101A300007D207494FF080500860BFF34F8FBFF3C4
:101A40006F8FBDE8F08100002C0000200808002006
:101A500004ED00E038B500F035FC104CA068C8B9C2
:101A60000F4800F0FDFB0E48143000F0F9FB0C4865
:101A70002060143060600A4B00202833009003F18E
:101A800048020C210A2000F0DDFEA06010B105A183
:101A900000F0B6FCBDE8384000F034BC680000201F
:101AA000F8080020546D72510000000030B4026C40
:101AB0000B46002A0BD0C1681144C1608468A14262
:101AC00001D30168C16030BC1846FEF728BC30BCA9
:101AD00070472DE9F041856B174604460026026CDD
:101AE00082B1C7B1E068FEF71AFCE168206C091A00
:101AF000E1602268914202D2A168081AE060022FD8
:101B000016D017E02068A8B9A06801F087FB064648
:101B10000020A0600EE06068FEF701FC216C6068A8
:101B200008446060A168884204D32068606001E0D6
:101B300005B16D1E6D1CA5633046BDE8F08110B582
:101B4000044690F8510058B101280CD002280FD05B
:101B5000502080F31188BFF34F8FBFF36F8FFEE7E4
:101B6000206B00F0E3FB2046BDE8104000F0DEBB38
:101B700010BD000010484FF47051420706D0C01D40
:101B80000D4920F00700411AC1F570510B4A00239E
:101B90000144C2E900030839103A21F0070111603D
:101BA0004B600B600B1AC0E9001393604FF00040CC
:101BB0005360D06070470000E00900208C000020D6
:101BC000144E154CA6F1C8074FF08058DFF84C9022
:101BD00012E000BF00F076FBF068C568281D00F039
:101BE00016FB2069401E2061E068401EE06000F0A6
:101BF00089FB2846FFF7A3FFE0680028EAD1386890
:101C00000128F9D9C9F80080BFF34F8FBFF36F8F58
:101C1000F2E70000D00800202C00002004ED00E0D6
:101C2000002807D00021816001600B460A46C16090
:101C300000F080BE70470346009829B10260C0E9F9
:101C40000F31012100F032BE0060F8E72DE9F047C6
:101C50009A46DDE9098481466FF00303206B03EBAC
:101C600082021044089E20F00707780707D0502012
:101C700080F31188BFF34F8FBFF36F8FFEE700250E
:101C800061B1002023180A5C83F834200A5C12B189
:101C9000401C1028F6D384F8435001E084F83450F7
:101CA000072E00D30626E662C4E91165201D00F068
:101CB000E2FA04F1180000F0DEFA2461C6F1070030
:101CC0006462A061E56484F8505052464946384643
:101CD00000F086FA2060B8F1000F01D0C8F800408B
:101CE000BDE8F0872DE9F0471E46DDE90894174668
:101CF0000D00804615D0002C11D0FFF7ABFE04F18B
:101D00001801C4F8008081E86002201D00F0B3FAD9
:101D1000002F04D014F8240F40F004002070BDE818
:101D2000F087502080F31188BFF34F8FBFF36F8F80
:101D3000FEE7000030B5114900E011460A68824212
:101D4000FBD34B685C18844203D140681844486058
:101D5000084643681C18944209D1084C103C24687A
:101D6000A24209D052681A4442600A6812680260AE
:101D7000814200D0086030BD0460F9E78C0000208B
:101D800070B5002441600B4D0061914206D8D11A14
:101D90008269914206D2011D686807E09A4203D227
:101DA000994201D3012403E0011D286800F066FA7E
:101DB000204670BD6800002010B5044600F082FA8D
:101DC000A06B28B15FF0000400F09CFA204610BD23
:101DD0000124F9E730B587B0394D67E00498002851
:101DE00064DB069C606910B1201D00F010FA03A8A6
:101DF00000F0D8F8024604980A2857D2DFE800F02D
:101E00000505052D334A05052D3394F8240040F0CF
:101E1000010084F824000599A069059B014420462F
:101E2000FFF7AEFF68B3216A2046884794F8240084
:101E300040073BD5002000900598A1690023421877
:101E40001946204601F07EFBD8B9502080F3118856
:101E5000BFF34F8FBFF36F8FFEE714F8240F20F00E
:101E60000100207022E094F8240040F0010084F882
:101E700024000598A06128B1811813462046FFF779
:101E80007FFF13E0502080F31188BFF34F8FBFF323
:101E90006F8FFEE794F82400810703D4204600F0FA
:101EA00045FA03E020F0010084F82400002204A990
:101EB000A86800F04DFE002890D107B030BD0000AA
:101EC000680000202DE9FC410F46054600F0CEFBDE
:101ED00001A800F067F80446019818B101F06EFA05
:101EE000BDE8FC81254EAFB170680068D0B3002713
:101EF000291B3A46B06800F097FA01F05FFA002813
:101F0000EED11F494FF080500860BFF34F8FBFF3F1
:101F10006F8FE5E7A542EBD801F050FA306827460D
:101F2000C068C468201D00F072F994F824004107CD
:101F300019D5A0692B4641193A462046FFF720FFE4
:101F4000A8B100200346014600902A46204601F031
:101F5000F9FA60B9502080F31188BFF34F8FBFF3B7
:101F60006F8FFEE707E020F0010084F82400216A6B
:101F700020468847B4E70127BAE700006800002040
:101F800004ED00E006484168096829B14168C96864
:101F9000C9684968016370474FF0FF31FAE70000F4
:101FA0002C00002070B5054601F088F8064E044666
:101FB0003069844203D200F009F8012000E00020DB
:101FC00028602046346170BD68000020F8B5194DC6
:101FD00020E0C068C4680668201D00F018F9216A76
:101FE0002046884794F82400400713D5A069304460
:101FF000B04206D924616060211D286800F03EF9D6
:1020000008E000200346014600903246204601F0D9
:1020100099FA38B1286801680029DAD16968C5E9F8
:102020000010F8BD502080F31188BFF34F8FBFF32D
:102030006F8FFEE76800002008484068401C4FF0A2
:10204000500080F3118804D0BFF34F8FBFF36F8F20
:10205000FEE7BFF34F8FBFF36F8FFEE794000020C2
:10206000074C2068016841B1C0680021D0F8000029
:10207000FFF728FFFFF7AEFEF3E701210020F7E7A7
:10208000680000202DE9F041044600F01BF994F9A6
:10209000455004F1240609E0606A48B1304601F079
:1020A00053F908B100F010FA6D1E6DB2002DF3DC8B
:1020B0004FF0FF3684F8456000F024F900F002F993
:1020C00094F9445004F1100709E0206948B13846FA
:1020D00001F03AF908B100F0F7F96D1E6DB2002D6C
:1020E000F3DC84F84460BDE8F04100F00BB9000077
:1020F0002DE9F0410546002700F0B8FA314E30686E
:1021000008B9FFF737FDF06805424BD1C5B3083574
:1021100068070ED005F00700C0F108000544680705
:1021200007D0502080F31188BFF34F8FBFF36F8F1C
:10213000FEE72DB37068854234D82248103001463E
:102140000C6801E020460C466168A94202D2216871
:102150000029F7D131688C4224D0076821680160DA
:1021600060680837411B10290FD96019420708D051
:10217000502080F31188BFF34F8FBFF36F8FFEE7BE
:1021800010E041606560FFF7D5FD61687068401A36
:102190007060B268904200D2B060F06801430020E5
:1021A000C4E9000101F00AF9780707D0502080F354
:1021B0001188BFF34F8FBFF36F8FFEE73846BDE83E
:1021C000F08100007C0000200449086818B108680C
:1021D000826C521C82640868704700002C0000204A
:1021E00010B5031F4FF080741C601B1F21F001010C
:1021F0001960191F044B0B6014390A60091F6FF036
:10220000020244380A6010BD392000087047D0E946
:10221000013201699A60D0E901235A604A6882421A
:1022200001D182684A60002202610868401E08608D
:1022300008687047034B036003F154000860802076
:1022400010607047E0000020044B036003F154006D
:1022500008604FF480701060704700003403002065
:1022600000F108014FF0FF32C0E90112C1600161C5
:1022700000210160704700210161704730B50B6893
:102280005A1C02D000F1080202E0026904E0224672
:10229000546825689D42FAD953684B6099608A60FA
:1022A000516008610168491C016030BD42684A60A4
:1022B00093688B6093685960916008610168491C5C
:1022C00001607047502080F31188BFF34F8FBFF338
:1022D0006F8F0A494868401C486001280CD10848A3
:1022E000006810F0FF0F07D0502080F31188BFF373
:1022F0004F8FBFF36F8FFEE7704700009400002000
:1023000004ED00E00849486828B1401E486001D14A
:1023100080F311887047502080F31188BFF34F8FEE
:10232000BFF36F8FFEE700009400002070B5002817
:1023300027D0144DA0F108046168E868014207D174
:10234000502080F31188BFF34F8FBFF36F8FFEE7EC
:1023500022683AB1502080F31188BFF34F8FBFF34A
:102360006F8FFEE78143616000F080F96068696803
:10237000084468602046FFF7DDFCBDE8704001F0CE
:102380001DB870BD7C0000204FF0E02000210161ED
:10239000816105494FF47A720968B1FBF2F1491E77
:1023A00041610721016170472800002010B5FDF749
:1023B0006FFF114910280ED300F1E02090F8F003D0
:1023C0000A78904207D2502080F31188BFF34F8FD4
:1023D000BFF36F8FFEE709480068896800F4E0608A
:1023E000884207D9502080F31188BFF34F8FBFF385
:1023F0006F8FFEE710BD0000940000200CED00E0A0
:1024000010B5084B002200BF53F832401CB1521CDB
:10241000082AF9D310BD43F8321003EBC20148601B
:1024200010BD0000C807002070B515460E460446D2
:10243000FFF748FF94F944100020491C01D184F8AB
:10244000440094F94510491C01D184F84500FFF778
:1024500059FFA06B28B92A46314604F1240000F048
:1024600051F82046BDE87040FFF70CBE10B50200E1
:1024700014D00F48806B38B1502080F31188BFF31F
:102480004F8FBFF36F8FFEE700F0F0F8002110468A
:10249000FFF740FA00F092FF002807D105494FF0FE
:1024A00080500860BFF34F8FBFF36F8F10BD0000E7
:1024B0002C00002004ED00E002498A6A02604969AC
:1024C000416070472C00002001490120486270479C
:1024D0002C00002010B50C4650B10949096818318C
:1024E000FFF7CCFE2046BDE810400121FFF712BAED
:1024F000502080F31188BFF34F8FBFF36F8FFEE73B
:102500002C00002070B514460D4668B10A490968D0
:102510001831FFF7CBFE0CB14FF0FF3521462846AE
:10252000BDE87040FFF7F6B9502080F31188BFF383
:102530004F8FBFF36F8FFEE72C00002070B50400B3
:102540004BD0A26CA2B1606C884200D30146E06A15
:10255000884242D0012A40D1204D2A6894420FD1AE
:10256000502080F31188BFF34F8FBFF36F8FFEE7CA
:10257000502080F31188BFF34F8FBFF36F8FFEE7BA
:10258000E162A269002A02DBC1F10701A161144ED8
:1025900000EB8000616906EB800081421DD1201DA7
:1025A000FFF735FE012150B9E06A00EB800256F8D2
:1025B000222022B9AA6901FA00F08243AA61E06AE6
:1025C000AA6981401143A96100EB800006EB8000FD
:1025D000211DBDE87040FFF769BE70BD2C000020D2
:1025E0000808002030B587B00024039405AA04A988
:1025F00003A80494FFF71EFEDDE903010094CDE972
:102600000110002315A11748059A00F0AEFC164DE5
:10261000002868631FD000F065FF012809D0401C26
:1026200019D1502080F31188BFF34F8FBFF36F8F04
:10263000FEE7502080F31188BFF34F8FBFF36F8FF9
:102640004FF0FF3028630120E8616C6107B0BDE8FE
:10265000304000F041B807B030BD000049444C455F
:1026600000000000C11B00082C0000200248816B04
:10267000491C8163704700002C0000201448816BC6
:1026800011B1012141627047002141628169B1FAB3
:1026900081F1C1F11F0101EB81020E4951F8223095
:1026A0006BB101EB820101F108034A6852684A608C
:1026B0009A4201D152684A60D16801607047502047
:1026C00080F31188BFF34F8FBFF36F8FFEE70000D9
:1026D0002C000020080800201CB537480168374A44
:1026E000914207D1502080F31188BFF34F8FBFF381
:1026F0006F8FFEE700683149491E884207D150209C
:1027000080F31188BFF34F8FBFF36F8FFEE72C4923
:1027100008780190FF20087008788DF800009DF877
:1027200000009DF8002000F0F000904207D05020FB
:1027300080F31188BFF34F8FBFF36F8FFEE79DF8D3
:102740000000204B00F0500018700720986005E052
:102750009DF8002052008DF80020401E9DF80020BA
:102760001206F5D49860032807D0502080F3118812
:10277000BFF34F8FBFF36F8FFEE74FF44070986049
:10278000019808700C482030016841F47001016024
:10279000016841F070410160FFF7F6FD00205860CC
:1027A000FDF73EFD0848016841F040410160FDF73A
:1027B00023FD00201CBD000000ED00E071C20F41B0
:1027C00000E400E09400002034EF00E010B5024681
:1027D0000021012000F012F80446FFF721FA2046FC
:1027E00010BD38B50B46002200901146012000F0C4
:1027F00029F80446FFF714FA204638BDF8B5174605
:102800000E46050014D0DEB105FB06F04830FFF798
:102810006FFC04000AD0002084F8460004F148024E
:102820003B46314628460094FFF705FA2046F8BD9E
:10283000502080F31188BFF34F8FBFF36F8FFEE7F7
:102840000020E3E738B5049D18B153B1CAB181B196
:1028500020E0502080F31188BFF34F8FBFF36F8FBC
:10286000FEE7502080F31188BFF34F8FBFF36F8FC7
:10287000FEE7502080F31188BFF34F8FBFF36F8FB7
:10288000FEE739B1502080F31188BFF34F8FBFF3BB
:102890006F8FFEE748241C46012384F846302B4600
:1028A0000094FFF7C8F9204638BD000070B50D460A
:1028B000040025D0FFF706FDD4E90F20216802FBB4
:1028C0000011A1600021A163216861600A46D4E97A
:1028D0000F01401E00FB0121E16021464FF0FF3057
:1028E00001F8440F487004F110008DB1FFF7B8FCF7
:1028F00004F12400FFF7B4FCFFF704FD012070BDD4
:10290000502080F31188BFF34F8FBFF36F8FFEE726
:1029100021690029F0D000F017FD0028ECD004490F
:102920004FF080500860BFF34F8FBFF36F8FE3E726
:1029300004ED00E02DE9FF4782B01D468A464FF0C6
:102940000008040003D0BAF1000F08D011E05020B5
:1029500080F31188BFF34F8FBFF36F8FFEE7206CBA
:1029600038B1502080F31188BFF34F8FBFF36F8FC2
:10297000FEE7022D0AD1E06B012807D0502080F33A
:102980001188BFF34F8FBFF36F8FFEE700F088FB16
:102990003F4F4FF000094FF0805648B9049838B1C6
:1029A000502080F31188BFF34F8FBFF36F8FFEE786
:1029B000FFF788FCA06BE16B884207D3022D05D09E
:1029C0000498D0B1B8F1000F1AD01EE02A46514643
:1029D0002046FFF77EF8616A19B104F1240000F087
:1029E000B3FC20B13E60BFF34F8FBFF36F8FFFF793
:1029F00089FC012006B0BDE8F087FFF783FC22E0E8
:102A00006846FFF759FD4FF00108FFF77BFCFFF721
:102A10002DFEFFF757FC94F94400401C01D184F8C7
:102A2000449094F94500401C01D184F84590FFF78B
:102A300069FC04A9684600F031FA30B12046FFF77E
:102A400021FB00F0BBFC0020D4E7FFF73BFCA06BB0
:102A5000E16B884213D1FFF755FC04F11000049993
:102A6000FFF738FD2046FFF70DFB00F0A7FC00281C
:102A70009ED13E60BFF34F8FBFF36F8F98E7FFF794
:102A800041FC2046FFF7FEFA00F098FC90E70000BA
:102A900004ED00E02DE9F0471F469046894604000A
:102AA00003D0B9F1000F08D011E0502080F3118855
:102AB000BFF34F8FBFF36F8FFEE7206C38B150200C
:102AC00080F31188BFF34F8FBFF36F8FFEE7022FA4
:102AD0000AD1E06B012807D0502080F31188BFF3A2
:102AE0004F8FBFF36F8FFEE7FFF760FC5020EFF3CF
:102AF000118680F31188BFF34F8FBFF36F8FA06BE8
:102B0000E16B884206D3022F04D0002086F311889F
:102B1000BDE8F08794F945503A4649462046FEF70D
:102B2000D8FF681C04D06D1C84F845500120EDE7E7
:102B3000606A0028FAD004F1240000F005FC0028A7
:102B4000F4D0B8F1000FF1D00121C8F80010EDE782
:102B50002DE9F747002683B08A46040003D0BAF176
:102B6000000F08D011E0502080F31188BFF34F8F81
:102B7000BFF36F8FFEE7206C38B1502080F31188CF
:102B8000BFF34F8FBFF36F8FFEE700F089FADFF8D6
:102B9000F4804FF000094FF0805748B9059838B1DC
:102BA000502080F31188BFF34F8FBFF36F8FFEE784
:102BB000FFF788FBA56BC5B151462046FEF776FFAF
:102BC0006D1EA563206950B104F1100000F0BCFB3C
:102BD00028B1C8F80070BFF34F8FBFF36F8FFFF7B6
:102BE00091FB012006B0BDE8F087059808B11EB141
:102BF00006E0FFF787FB27E06846FFF75DFC01264C
:102C0000FFF780FBFFF732FDFFF75CFB94F9440010
:102C1000401C01D184F8449094F94500401C01D136
:102C200084F84590FFF76EFB05A9684600F036F979
:102C3000002820460AD0FFF725FA00F0BFFB204607
:102C4000FFF7BAF80028B3D00020CBE7FFF7B4F8BD
:102C500090B104F124000599FFF73CFC2046FFF7F2
:102C600011FA00F0ABFB0028A2D1C8F80070BFF346
:102C70004F8FBFF36F8F9BE72046FFF703FA00F0FB
:102C80009DFB95E704ED00E02DE9F047904689466D
:102C9000040003D0B9F1000F08D011E0502080F3F8
:102CA0001188BFF34F8FBFF36F8FFEE7206C38B1F1
:102CB000502080F31188BFF34F8FBFF36F8FFEE773
:102CC000FFF774FB5020EFF3118680F31188BFF3F8
:102CD0004F8FBFF36F8FA76BF7B194F944504946FC
:102CE0002046FEF7E3FE7F1EA763681C04D06D1C20
:102CF00084F84450012010E020690028FAD004F143
:102D0000100000F021FB0028F4D0B8F1000FF1D042
:102D10000121C8F80010EDE7002086F31188BDE816
:102D2000F08700002DE9F343002683B00400354608
:102D300009D0206C78B1502080F31188BFF34F8FF9
:102D4000BFF36F8FFEE7502080F31188BFF34F8FE2
:102D5000BFF36F8FFEE700F0A3F9DFF83C814FF07F
:102D600000094FF0805748B9049838B1502080F3DB
:102D70001188BFF34F8FBFF36F8FFEE7FFF7A2FA03
:102D8000A06BC8B1401EA063206810B9FFF71CFA01
:102D9000A060206950B104F1100000F0D5FA28B10C
:102DA000C8F80070BFF34F8FBFF36F8FFFF7AAFA19
:102DB000012005B0BDE8F083049808B166B10FE0CA
:102DC0003DB1502080F31188BFF34F8FBFF36F8F59
:102DD000FEE7FFF797FA5DE06846FFF76DFB012617
:102DE000FFF790FAFFF742FCFFF76CFA94F9440002
:102DF000401C01D184F8449094F94500401C01D155
:102E000084F84590FFF77EFA04A9684600F046F87A
:102E10000028204612D0FFF735F900F0CFFA2046FF
:102E2000FEF7CAFF0028A9D09DB3FFF74BFA606AEE
:102E300050B3206B0068C0F1070126E0FEF7BCFF2D
:102E4000E0B1206838B9FFF73DFAA06800F032FA27
:102E50000546FFF757FA04F124000499FFF73AFBFF
:102E60002046FFF70FF900F0A9FA002886D1C8F82C
:102E70000070BFF34F8FBFF36F8F7FE72046FFF7E0
:102E800001F900F09BFA79E70021A068FFF756FBF3
:102E90009FE7FFE700208CE704ED00E02DE9F0411B
:102EA0000C46050011D0C4B1FFF70CFA174B5A6954
:102EB0006E682068911B471C17D02F689B6A9F4241
:102EC00019D0964217D8012410E0502080F31188C1
:102ED000BFF34F8FBFF36F8FFEE7502080F3118851
:102EE000BFF34F8FBFF36F8FFEE70024FFF70AFA9F
:102EF0002046BDE8F081884205D9401A2060284666
:102F0000FFF7DAFAF1E700202060DCE72C00002070
:102F10002DE9FF5F8346DDE90E87994616468A460E
:102F20009000FFF7E5F805001CD05420FFF7E0F80B
:102F3000040014D00020256384F85100CDE902403C
:102F4000CDE900874B46324651465846FEF77EFE95
:102F50002046FEF717FD012004B0BDE8F09F28468B
:102F6000FFF7E4F94FF0FF30F6E7F0B585B0DDE9A3
:102F70000B640A9DA6B1DCB1542700972663022694
:102F800084F85160002604AFCDE90246CDE9005730
:102F9000FEF75CFE2046FEF7F5FC049805B0F0BD98
:102FA000502080F31188BFF34F8FBFF36F8FFEE780
:102FB000502080F31188BFF34F8FBFF36F8FFEE770
:102FC0002DE9F0411F4690460D46012690B104467A
:102FD000FFF778F90FB1E06C386094F850000221E7
:102FE00084F85010B8F1050F19D2DFE808F0230B70
:102FF0000E141200502080F31188BFF34F8FBFF3DF
:103000006F8FFEE7E16C294301E0E16C491CE1644C
:1030100010E0022801D0E5640CE0002635E0E16C08
:10302000491C07D0502080F31188BFF34F8FBFF3A6
:103030006F8FFEE7012828D1201DFFF7E8F8154D16
:10304000E06A0121AA6981401143A961124900EB9C
:10305000800001EB8000211DFFF728F9A06A38B13C
:10306000502080F31188BFF34F8FBFF36F8FFEE7BF
:10307000E06A2968C96A884207D908494FF0805038
:103080000860BFF34F8FBFF36F8FFFF73BF93046F8
:10309000BDE8F0812C0000200808002004ED00E0CD
:1030A0000548C16919B1806B18B100207047012033
:1030B00070470220704700002C0000200148406942
:1030C000704700002C0000202DE9F0412E4C002715
:1030D000A06B40B1206A401C2062606A00B10127E9
:1030E0003846BDE8F0816669761C666113D1606878
:1030F000006838B1502080F31188BFF34F8FBFF3C1
:103100006F8FFEE76068A1686160A060A06A401CE4
:10311000A062FEF737FF206BDFF87080864209D38C
:103120006068006880B16068C068C5686868864289
:103130000DD220632068C06A00EB800158F821009E
:103140000128CAD90127C8E74FF0FF30F1E7281D51
:10315000FFF75DF8A86A18B105F11800FFF757F8F6
:10316000E86A0121A26981401143A16100EB80015D
:1031700008EB8100291DFFF799F8E86A2168C96A00
:103180008842CDD30127CBE72C000020080800207F
:103190002DE9F0411E46154688460746FFF792F88E
:1031A0001C4C206890F85000022814D02068C16C94
:1031B000B943C1642168012081F850005EB101214A
:1031C0003046FEF7A7FB14494FF080500860BFF36C
:1031D0004F8FBFF36F8FFFF795F8FFF773F815B1B7
:1031E0002068C06C2860206890F85000022801D048
:1031F000002505E02068C16C21EA0801C1640125B1
:103200002168002081F85000FFF77CF82846BDE8CF
:10321000F08100002C00002004ED00E070B50400F7
:103220004FF0000140D0214D2868844207D0502043
:1032300080F31188BFF34F8FBFF36F8FFEE7A06C51
:1032400038B1401EA064636CE26A9A422CD040B14F
:103250002AE0502080F31188BFF34F8FBFF36F8FA8
:10326000FEE7201DFEF7D3FF114A012150B9E06AA5
:1032700000EB800352F8233023B9AB6901FA00F068
:103280008343AB61606CE062C0F10700A061E06A5B
:10329000AB6981401943A96100EB800002EB80001B
:1032A000211DFFF703F80121084670BD2C00002006
:1032B0000808002070B504004FF0000038D0204D01
:1032C000E16A2A68D26A914233D2A069002804DBFD
:1032D0002868C06AC0F10700A0611A4E01EB8101A5
:1032E000606906EB810188421ED1201DFEF78FFF29
:1032F000012150B9E06A00EB800256F8222022B981
:10330000AA6901FA00F08243AA612868C06AE062F3
:10331000AA6981401143A96100EB800006EB80009F
:10332000211DFEF7C3FF02E02868C06AE0620120A9
:1033300070BD616C2A68D26A9142F8D370BD0000FA
:103340002C000020080800202DE9F041C068C46866
:10335000ACB104F118000746FEF759FF154DA86BF4
:103360000126A0B139461448FEF7A0FFE06A29689B
:10337000C96A88421CD901206E62BDE8F0815020E4
:1033800080F31188BFF34F8FBFF36F8FFEE7201DCF
:10339000FEF73DFFE16AAA6906FA01F01043A86151
:1033A00001EB81000449B43901EB8000211DDBE70A
:1033B0000020E2E72C000020BC0800202DE9F047A7
:1033C0002C4D00242746A86B38B1FEF77BFFA86B75
:1033D000401EA863A86B40B146E0502080F31188DE
:1033E000BFF34F8FBFF36F8FFEE72969224E012095
:1033F000D1B3A6F1B40980463068E8B1F068C4687A
:1034000004F11800FEF703FF201DFEF700FFE06A3D
:10341000AA6908FA00F11143A96100EB800109EBE8
:103420008100211DFEF742FFE06A2968C96A8842CF
:10343000E2D3C5F82480DFE70CB1FEF7A3FD2C6AC8
:1034400044B14646FFF740FE00B16E62641EF9D1FA
:1034500000202862686A38B10849012738070860E7
:10346000BFF34F8FBFF36F8FFEF74CFF3846BDE8B9
:10347000F08700002C000020BC08002004ED00E0D4
:103480002DE9FC4781461E461746884628200A9D9E
:10349000FEF72EFE04000AD0002084F82400CDE9B7
:1034A000005433463A4641464846FEF71BFC204648
:1034B000BDE8FC877CB52826DDE90654009644B1BA
:1034C000022684F82460CDE90054FEF70BFC204668
:1034D0007CBD502080F31188BFF34F8FBFF36F8FF7
:1034E000FEE7000010B586B0FEF7B4FA114CA068F4
:1034F000B8B100200390049005AA04A903A8FEF720
:10350000A3FEDDE9032102208DE8070000230AA1C4
:103510000B48059AFFF729FDE06010B106B00120C5
:1035200010BD502080F31188BFF34F8FBFF36F8F12
:10353000FEE7000068000020546D7220537663009F
:1035400061200008FEB51E4613460200089D4FF09C
:10355000000014D0124CA768002F0FD0CDE9001343
:103560000292062915DAFFF79BFD02284FF00003AF
:103570000DD000226946A068FFF7DCF9FEBD50209F
:1035800080F31188BFF34F8FBFF36F8FFEE72A469A
:10359000F0E70023324669463846FFF77BFAFEBD66
:1035A00068000020CD0300080000000005000000B6
:1035B0000100000000000000000000006836000864
:1035C0003D12000800000000000000008000000024
:1035D000000000000000000044360008E912000866
:1035E000FDFF00000000000080000000000000005F
:1035F000000000005036000865130008FDFF0000C1
:103600000100000080000000000000000000000039
:103610005C360008E1130008010000000100000012
:10362000800000000000000000000000000000001A
:103630000000000001020304060708090000000062
:10364000010203046D795461736B30320000000095
:103650006D795461736B3033000000006D795461F3
:10366000736B30340000000064656661756C7454DF
:1036700061736B009436000800000020A000000079
:10368000D615000834370008A0000020404900008B
:10369000E615000800000000000000000000000027
:1036A000000000000000000000000000000000001A
:1036B0000100000010000000000000000024F400E1
:1036C00000000000000000000000000000000000FA
:1036D00000000000000000000000000000000000EA
:1036E00000000000000000000000000000000000DA
:1036F00000000000000000000000000000000000CA
:1037000000000000000000000000000000000000B9
:1037100000000000000000000000000000000000A9
:10372000000000000000000000000000AAAAAAAAF1
:043730000000000095
:04000005080001C529
:00000001FF
